:1000000009C021C020C01FC01EC01DC01DC01BC014
:100010001AC019C011241FBECFE9CDBF10E0A0E661
:10002000B0E0E8E3F2E002C005900D92A236B1071D
:10003000D9F720E0A2E6B0E001C01D92A636B207D3
:10004000E1F79BD0F7C0DCCF1F920F920FB60F9253
:10005000112412BE0F900FBE0F901F9018959B0198
:10006000220F331F620F731FB89A28B32E7F38B345
:1000700031604FB7F8946115710591F0FC01680F7C
:10008000791F819198E038BB000087FF28BB880F5B
:10009000000028BB00C09A95B1F7E617F70789F76B
:1000A0004FBF789408959B01220F331F620F731F77
:1000B00027B3242B27BB28B3342F3095232338B301
:1000C000432B3FB7F8946115710591F0FC01680F5F
:1000D000791F819198E048BB000087FF28BB880FFB
:1000E000000028BB00C09A95B1F7E617F70789F71B
:1000F0003FBF78940895B89A28B32E7F38B3316003
:100100004FB7F8946115710591F0FC01680F791FE4
:10011000819198E038BB000087FF28BB880F000062
:1001200028BB00C09A95B1F7E617F70789F74FBFCC
:100130007894089527B3242B27BB28B3342F309508
:10014000232338B3432B3FB7F8946115710591F021
:10015000FC01680F791F819198E048BB000087FF80
:1001600028BB880F000028BB00C09A95B1F7E6179E
:10017000F70789F73FBF7894089584E083BF92E042
:100180009FBD89BF85E286BF789485B7877E85BF8E
:10019000C3E28091620091E0980F909362008535F0
:1001A00040F18A3AA8F18A5A10926400982F990F68
:1001B000980F90936300982F990F990F891B815086
:1001C00080936500C093600061E070E083E690E09A
:1001D00046DF809160009FEF980F90936000882326
:1001E000C1F285B7806285BF889585B78F7D85BF51
:1001F000F0CF982F990F980F90936400982F990F34
:10020000990F891B81508093630010926500DACFAB
:100210008555982F990F990F282F291B922F9150B0
:100220009093640010926300982F990F890F809328
:080230006500C8CFF894FFCF70
:020238000500BF
:00000001FF
